:1000000019C020C01FC01EC01DC01CC01BC01AC00C
:1000100019C018C018C016C015C014C013C012C033
:1000200011C010C00FC00EC00DC00CC00BC00AC064
:1000300009C008C011241FBECFEFD4E0DEBFCDBF82
:1000400014D022C0DDCF1F920F920FB60F92112451
:100050008F939F9385B194E0892785B99F918F9164
:100060000F900FBE0F901F90189586E084B978947A
:1000700020E137E2199BFECF2A9AC9010197F1F7D7
:0C0080002A981999FECFF6CFF894FFCF14
:00000001FF
